:04000000C3EF3FF01B
:107F40003738393435363132332A3023C282C2B21F
:107F5000ACEF3FF0AEEF3FF0A7EF3FF0C4501200A0
:107F6000C150F00B0E09C16ECF0EC116C30EC21662
:107F7000C050C70B1009C06EC050F80B0109C06E8D
:107F8000C09EC2801200400EF66E7F0EF76E000E8D
:107F9000F86E00EE01F010EE0CF00900F5CFEEFFE8
:107FA000E550E150FAE10F6A0E6A0D6A0001D9EF5F
:107FB0003FF0720ED36EF19E938E9390B0EC3FF033
:107FC000A6EC3FF0126E1250106E116A81AEEBEF0C
:107FD0003FF0EDEF3FF0FBEF3FF0115009E11A0EDB
:107FE000105CD8A0F6EF3FF0F8EF3FF0FBEF3FF06A
:107FF0008A80E0EF3FF08A90E0EF3FF000EF00F082
:020000040020DA
:08000000FFFFFFFFFFFFFFFF00
:020000040030CA
:0E0000000005171EFF8385FF0FC00FE00F40A5
:020000040000FA
:00000001FF
